{
  "contractName": "Timestamper",
  "abi": [
    {
      "anonymous": false,
      "inputs": [
        {
          "indexed": true,
          "internalType": "address",
          "name": "previousOwner",
          "type": "address"
        },
        {
          "indexed": true,
          "internalType": "address",
          "name": "newOwner",
          "type": "address"
        }
      ],
      "name": "OwnershipTransferred",
      "type": "event"
    },
    {
      "anonymous": false,
      "inputs": [
        {
          "indexed": true,
          "internalType": "string",
          "name": "hash",
          "type": "string"
        }
      ],
      "name": "Timestamp",
      "type": "event"
    },
    {
      "inputs": [],
      "name": "owner",
      "outputs": [
        {
          "internalType": "address",
          "name": "",
          "type": "address"
        }
      ],
      "stateMutability": "view",
      "type": "function",
      "constant": true
    },
    {
      "inputs": [],
      "name": "renounceOwnership",
      "outputs": [],
      "stateMutability": "nonpayable",
      "type": "function"
    },
    {
      "inputs": [
        {
          "internalType": "address",
          "name": "newOwner",
          "type": "address"
        }
      ],
      "name": "transferOwnership",
      "outputs": [],
      "stateMutability": "nonpayable",
      "type": "function"
    },
    {
      "inputs": [
        {
          "internalType": "string",
          "name": "hash",
          "type": "string"
        }
      ],
      "name": "timestamp",
      "outputs": [],
      "stateMutability": "nonpayable",
      "type": "function"
    }
  ],
  "bytecode": "0x608060405234801561001057600080fd5b5061002d61002261003260201b60201c565b61003a60201b60201c565b6100fe565b600033905090565b60008060009054906101000a900473ffffffffffffffffffffffffffffffffffffffff169050816000806101000a81548173ffffffffffffffffffffffffffffffffffffffff021916908373ffffffffffffffffffffffffffffffffffffffff1602179055508173ffffffffffffffffffffffffffffffffffffffff168173ffffffffffffffffffffffffffffffffffffffff167f8be0079c531659141344cd1fd0a4f28419497f9722a3daafe3b4186f6b6457e060405160405180910390a35050565b6106f78061010d6000396000f3fe608060405234801561001057600080fd5b506004361061004c5760003560e01c806309f13b1914610051578063715018a61461006d5780638da5cb5b14610077578063f2fde38b14610095575b600080fd5b61006b60048036038101906100669190610458565b6100b1565b005b610075610175565b005b61007f6101fd565b60405161008c91906104e6565b60405180910390f35b6100af60048036038101906100aa919061052d565b610226565b005b6100b961031d565b73ffffffffffffffffffffffffffffffffffffffff166100d76101fd565b73ffffffffffffffffffffffffffffffffffffffff161461012d576040517f08c379a0000000000000000000000000000000000000000000000000000000008152600401610124906105b7565b60405180910390fd5b818160405161013d929190610616565b60405180910390207f68dc69735580ad9af858b31f682575d0f71fb66069dd199c0e180bdff2af438a60405160405180910390a25050565b61017d61031d565b73ffffffffffffffffffffffffffffffffffffffff1661019b6101fd565b73ffffffffffffffffffffffffffffffffffffffff16146101f1576040517f08c379a00000000000000000000000000000000000000000000000000000000081526004016101e8906105b7565b60405180910390fd5b6101fb6000610325565b565b60008060009054906101000a900473ffffffffffffffffffffffffffffffffffffffff16905090565b61022e61031d565b73ffffffffffffffffffffffffffffffffffffffff1661024c6101fd565b73ffffffffffffffffffffffffffffffffffffffff16146102a2576040517f08c379a0000000000000000000000000000000000000000000000000000000008152600401610299906105b7565b60405180910390fd5b600073ffffffffffffffffffffffffffffffffffffffff168173ffffffffffffffffffffffffffffffffffffffff1603610311576040517f08c379a0000000000000000000000000000000000000000000000000000000008152600401610308906106a1565b60405180910390fd5b61031a81610325565b50565b600033905090565b60008060009054906101000a900473ffffffffffffffffffffffffffffffffffffffff169050816000806101000a81548173ffffffffffffffffffffffffffffffffffffffff021916908373ffffffffffffffffffffffffffffffffffffffff1602179055508173ffffffffffffffffffffffffffffffffffffffff168173ffffffffffffffffffffffffffffffffffffffff167f8be0079c531659141344cd1fd0a4f28419497f9722a3daafe3b4186f6b6457e060405160405180910390a35050565b600080fd5b600080fd5b600080fd5b600080fd5b600080fd5b60008083601f840112610418576104176103f3565b5b8235905067ffffffffffffffff811115610435576104346103f8565b5b602083019150836001820283011115610451576104506103fd565b5b9250929050565b6000806020838503121561046f5761046e6103e9565b5b600083013567ffffffffffffffff81111561048d5761048c6103ee565b5b61049985828601610402565b92509250509250929050565b600073ffffffffffffffffffffffffffffffffffffffff82169050919050565b60006104d0826104a5565b9050919050565b6104e0816104c5565b82525050565b60006020820190506104fb60008301846104d7565b92915050565b61050a816104c5565b811461051557600080fd5b50565b60008135905061052781610501565b92915050565b600060208284031215610543576105426103e9565b5b600061055184828501610518565b91505092915050565b600082825260208201905092915050565b7f4f776e61626c653a2063616c6c6572206973206e6f7420746865206f776e6572600082015250565b60006105a160208361055a565b91506105ac8261056b565b602082019050919050565b600060208201905081810360008301526105d081610594565b9050919050565b600081905092915050565b82818337600083830152505050565b60006105fd83856105d7565b935061060a8385846105e2565b82840190509392505050565b60006106238284866105f1565b91508190509392505050565b7f4f776e61626c653a206e6577206f776e657220697320746865207a65726f206160008201527f6464726573730000000000000000000000000000000000000000000000000000602082015250565b600061068b60268361055a565b91506106968261062f565b604082019050919050565b600060208201905081810360008301526106ba8161067e565b905091905056fea26469706673582212201fde07dfbca475d6185eb6ebc0ba62de1cb4f191b639bb98ad20a99df67fb15a64736f6c634300080d0033",
  "immutableReferences": {},
  "source": "// SPDX-License-Identifier: GPL-3.0-or-later \n// The GPL license declared specifies the following: Everyone is permitted to copy and distribute verbatim copies of this license document, but changing it is not allowed\n// Source: https://spdx.org/licenses/GPL-3.0-or-later.html\n\n\npragma solidity >=0.4.22 <0.9.0;            //This line specifies a range of solidity compilier versions that are accepted to compile this smart contract\n\n//import \"hardhat/console.sol\";\nimport \"@openzeppelin/contracts/access/Ownable.sol\";    //Ownable module allows ownership of this contract, only the specified owner can call the timestamp functions\n//import \"@openzeppelin/upgrades-core/contracts/Initializable.sol\";   //For contract upgradeability\n\ncontract Timestamper is Ownable             \n{\n    //uint256 private _hash;                                        //Declare a private string variable _hash used to store the user input hash.\n                                                                    //Private variable means that other accessing and modifying the information by other contracts are prevented. (Source: https://docs.soliditylang.org/en/v0.4.24/contracts.html)\n    event Timestamp(string indexed hash);                           //Declareing an event allows arguments to be stored in the transaction's log, this is the main method of storing the user hash input onto the blockchain\n                                                                    //The Argument \"indexed\" allows the respective arguments to be searched for (Source:https://docs.soliditylang.org/en/v0.4.24/contracts.html#events)\n    \n    //Memory and calldata define the data area where a variable is stored. \n    //It is used to temporarily store variables and their values (Source:https://ethereum.stackexchange.com/questions/74442/when-should-i-use-calldata-and-when-should-i-use-memory)\n    //calldata choosen due to lower gas usage.\n    function timestamp(string calldata hash) public onlyOwner         \n    {\n        //_hash = hash;                                             //Commented out for gas efficiency\n\n        //console.log(\"Timestamping:\", hash);                       //This is commented out to improve gas efficientcy\n        \n        emit Timestamp(hash);                                       //This allows the argument (supplied hash input) event indexed to be logged in the transaction's input field\n    }\n    \n\n\n    //The below function allows a call (zero gas usage) to display the most recent value stored in _hash \n    //function retrieve() public view returns (string calldata)         \n    //{\n        //return _hash;\n    //}\n\n    //function batchTimestamp(string[] memory hashes) public onlyOwner {\n        //for (string i = 0; i < hashes.length; i++) {\n        //    emit Timestamp(hashes[i]);\n        //}\n    //}\n}",
  "sourcePath": "/home/csc/Timestamper-SC-project/contracts/timestamper.sol",
  "compiler": {
    "name": "solc",
    "version": "0.8.13+commit.abaa5c0e.Emscripten.clang"
  },
  "schemaVersion": "3.4.7",
  "updatedAt": "2022-05-03T14:20:30.986Z",
  "networkType": "ethereum",
  "devdoc": {
    "kind": "dev",
    "methods": {
      "owner()": {
        "details": "Returns the address of the current owner."
      },
      "renounceOwnership()": {
        "details": "Leaves the contract without owner. It will not be possible to call `onlyOwner` functions anymore. Can only be called by the current owner. NOTE: Renouncing ownership will leave the contract without an owner, thereby removing any functionality that is only available to the owner."
      },
      "transferOwnership(address)": {
        "details": "Transfers ownership of the contract to a new account (`newOwner`). Can only be called by the current owner."
      }
    },
    "version": 1
  },
  "userdoc": {
    "kind": "user",
    "methods": {},
    "version": 1
  }
}