{
  "contractName": "Timestamper",
  "abi": [
    {
      "anonymous": false,
      "inputs": [
        {
          "indexed": true,
          "internalType": "address",
          "name": "previousOwner",
          "type": "address"
        },
        {
          "indexed": true,
          "internalType": "address",
          "name": "newOwner",
          "type": "address"
        }
      ],
      "name": "OwnershipTransferred",
      "type": "event"
    },
    {
      "anonymous": false,
      "inputs": [
        {
          "indexed": true,
          "internalType": "string",
          "name": "hash",
          "type": "string"
        }
      ],
      "name": "Timestamp",
      "type": "event"
    },
    {
      "inputs": [],
      "name": "owner",
      "outputs": [
        {
          "internalType": "address",
          "name": "",
          "type": "address"
        }
      ],
      "stateMutability": "view",
      "type": "function",
      "constant": true
    },
    {
      "inputs": [],
      "name": "renounceOwnership",
      "outputs": [],
      "stateMutability": "nonpayable",
      "type": "function"
    },
    {
      "inputs": [
        {
          "internalType": "address",
          "name": "newOwner",
          "type": "address"
        }
      ],
      "name": "transferOwnership",
      "outputs": [],
      "stateMutability": "nonpayable",
      "type": "function"
    },
    {
      "inputs": [
        {
          "internalType": "string",
          "name": "hash",
          "type": "string"
        }
      ],
      "name": "timestamp",
      "outputs": [],
      "stateMutability": "nonpayable",
      "type": "function"
    },
    {
      "inputs": [
        {
          "internalType": "string[]",
          "name": "hash",
          "type": "string[]"
        }
      ],
      "name": "batchTimestamp",
      "outputs": [],
      "stateMutability": "nonpayable",
      "type": "function"
    }
  ],
  "bytecode": "0x608060405234801561001057600080fd5b5061002d61002261003260201b60201c565b61003a60201b60201c565b6100fe565b600033905090565b60008060009054906101000a900473ffffffffffffffffffffffffffffffffffffffff169050816000806101000a81548173ffffffffffffffffffffffffffffffffffffffff021916908373ffffffffffffffffffffffffffffffffffffffff1602179055508173ffffffffffffffffffffffffffffffffffffffff168173ffffffffffffffffffffffffffffffffffffffff167f8be0079c531659141344cd1fd0a4f28419497f9722a3daafe3b4186f6b6457e060405160405180910390a35050565b6109ec8061010d6000396000f3fe608060405234801561001057600080fd5b50600436106100575760003560e01c806309f13b191461005c5780632ca7894214610078578063715018a6146100945780638da5cb5b1461009e578063f2fde38b146100bc575b600080fd5b61007660048036038101906100719190610588565b6100d8565b005b610092600480360381019061008d919061062b565b61019c565b005b61009c6102a5565b005b6100a661032d565b6040516100b391906106b9565b60405180910390f35b6100d660048036038101906100d19190610700565b610356565b005b6100e061044d565b73ffffffffffffffffffffffffffffffffffffffff166100fe61032d565b73ffffffffffffffffffffffffffffffffffffffff1614610154576040517f08c379a000000000000000000000000000000000000000000000000000000000815260040161014b9061078a565b60405180910390fd5b81816040516101649291906107e9565b60405180910390207f68dc69735580ad9af858b31f682575d0f71fb66069dd199c0e180bdff2af438a60405160405180910390a25050565b6101a461044d565b73ffffffffffffffffffffffffffffffffffffffff166101c261032d565b73ffffffffffffffffffffffffffffffffffffffff1614610218576040517f08c379a000000000000000000000000000000000000000000000000000000000815260040161020f9061078a565b60405180910390fd5b60005b828290508110156102a05782828281811061023957610238610802565b5b905060200281019061024b9190610840565b6040516102599291906107e9565b60405180910390207f68dc69735580ad9af858b31f682575d0f71fb66069dd199c0e180bdff2af438a60405160405180910390a28080610298906108dc565b91505061021b565b505050565b6102ad61044d565b73ffffffffffffffffffffffffffffffffffffffff166102cb61032d565b73ffffffffffffffffffffffffffffffffffffffff1614610321576040517f08c379a00000000000000000000000000000000000000000000000000000000081526004016103189061078a565b60405180910390fd5b61032b6000610455565b565b60008060009054906101000a900473ffffffffffffffffffffffffffffffffffffffff16905090565b61035e61044d565b73ffffffffffffffffffffffffffffffffffffffff1661037c61032d565b73ffffffffffffffffffffffffffffffffffffffff16146103d2576040517f08c379a00000000000000000000000000000000000000000000000000000000081526004016103c99061078a565b60405180910390fd5b600073ffffffffffffffffffffffffffffffffffffffff168173ffffffffffffffffffffffffffffffffffffffff1603610441576040517f08c379a000000000000000000000000000000000000000000000000000000000815260040161043890610996565b60405180910390fd5b61044a81610455565b50565b600033905090565b60008060009054906101000a900473ffffffffffffffffffffffffffffffffffffffff169050816000806101000a81548173ffffffffffffffffffffffffffffffffffffffff021916908373ffffffffffffffffffffffffffffffffffffffff1602179055508173ffffffffffffffffffffffffffffffffffffffff168173ffffffffffffffffffffffffffffffffffffffff167f8be0079c531659141344cd1fd0a4f28419497f9722a3daafe3b4186f6b6457e060405160405180910390a35050565b600080fd5b600080fd5b600080fd5b600080fd5b600080fd5b60008083601f84011261054857610547610523565b5b8235905067ffffffffffffffff81111561056557610564610528565b5b6020830191508360018202830111156105815761058061052d565b5b9250929050565b6000806020838503121561059f5761059e610519565b5b600083013567ffffffffffffffff8111156105bd576105bc61051e565b5b6105c985828601610532565b92509250509250929050565b60008083601f8401126105eb576105ea610523565b5b8235905067ffffffffffffffff81111561060857610607610528565b5b6020830191508360208202830111156106245761062361052d565b5b9250929050565b6000806020838503121561064257610641610519565b5b600083013567ffffffffffffffff8111156106605761065f61051e565b5b61066c858286016105d5565b92509250509250929050565b600073ffffffffffffffffffffffffffffffffffffffff82169050919050565b60006106a382610678565b9050919050565b6106b381610698565b82525050565b60006020820190506106ce60008301846106aa565b92915050565b6106dd81610698565b81146106e857600080fd5b50565b6000813590506106fa816106d4565b92915050565b60006020828403121561071657610715610519565b5b6000610724848285016106eb565b91505092915050565b600082825260208201905092915050565b7f4f776e61626c653a2063616c6c6572206973206e6f7420746865206f776e6572600082015250565b600061077460208361072d565b915061077f8261073e565b602082019050919050565b600060208201905081810360008301526107a381610767565b9050919050565b600081905092915050565b82818337600083830152505050565b60006107d083856107aa565b93506107dd8385846107b5565b82840190509392505050565b60006107f68284866107c4565b91508190509392505050565b7f4e487b7100000000000000000000000000000000000000000000000000000000600052603260045260246000fd5b600080fd5b600080fd5b600080fd5b6000808335600160200384360303811261085d5761085c610831565b5b80840192508235915067ffffffffffffffff82111561087f5761087e610836565b5b60208301925060018202360383131561089b5761089a61083b565b5b509250929050565b7f4e487b7100000000000000000000000000000000000000000000000000000000600052601160045260246000fd5b6000819050919050565b60006108e7826108d2565b91507fffffffffffffffffffffffffffffffffffffffffffffffffffffffffffffffff8203610919576109186108a3565b5b600182019050919050565b7f4f776e61626c653a206e6577206f776e657220697320746865207a65726f206160008201527f6464726573730000000000000000000000000000000000000000000000000000602082015250565b600061098060268361072d565b915061098b82610924565b604082019050919050565b600060208201905081810360008301526109af81610973565b905091905056fea264697066735822122055eff37e5879735338e023c86c809fde5f1ef572ec5ee09bfe00f10a7beb3d6e64736f6c634300080d0033",
  "immutableReferences": {},
  "source": "// SPDX-License-Identifier: MIT\n\n// The MIT license declared (SPDX, 2018) specifies the following: \n// \"Permission is hereby granted, free of charge, to any person obtaining a copy of this software and associated documentation files (the \"Software\"), \n// to deal in the Software without restriction.\"\n\n\npragma solidity >=0.4.22 <0.9.0;    //This specifies a range of solidity compilier versions that are accepted to compile this smart contract (Solidity, n.d.).\n\n//import \"hardhat/console.sol\";\nimport \"@openzeppelin/contracts/access/Ownable.sol\";    //Only the address of the deployer can call functions tagged with onlyOwner within this smart contract (OpenZeppelin, n.d.).\n//import \"@openzeppelin/upgrades-core/contracts/Initializable.sol\";   \n\n\ncontract Timestamper is Ownable                                     \n{\n    //uint256 private _hash;                            //Declare a private string variable _hash used to store the user input hash.\n                                                        //Private variable means that accessing and modifying the information by other contracts are prevented (Solidity, n.d.). \n    event Timestamp(string indexed hash);               //Declareing an event allows arguments to be stored in the transaction's log, this is the main method of storing the user hash input onto the blockchain.\n                                                        //\"indexed\" flag allows the respective arguments to be displayed in log (Solidity, n.d.). \n    \n    //Memory and calldata define the data area where a variable is stored. \n    //It is used to temporarily store variables and their values (Fontaine, 2019).\n    //calldata method is choosen choosen due to lower gas usage after testing both options.\n    function timestamp(string calldata hash) public onlyOwner       \n    {\n        //_hash = hash;                                             \n        //console.log(\"Timestamping:\", hash);                       \n                    \n        emit Timestamp(hash);                           //This allows the argument (supplied hash input) event indexed to be logged in the transaction's input field (Solidity, n.d.).      \n        \n    }\n    \n\n    //This function takes a list of strings as input rather than a single string,\n    //the for loop will iterate through the list of input and emit an event log for every single element inside the list\n    //the keccak256 value of each input element will be assigned with a log index to be displayed on the event log page of the node providers.\n    function batchTimestamp(string[] calldata hash) public onlyOwner \n    {\n        for (uint256 i = 0; i < hash.length; i++) \n        {\n            emit Timestamp(hash[i]);\n        }\n    }\n}",
  "sourcePath": "/home/csc/Timestamper-SC-project/contracts/timestamper.sol",
  "compiler": {
    "name": "solc",
    "version": "0.8.13+commit.abaa5c0e.Emscripten.clang"
  },
  "schemaVersion": "3.4.7",
  "updatedAt": "2022-05-09T01:44:18.970Z",
  "networkType": "ethereum",
  "devdoc": {
    "kind": "dev",
    "methods": {
      "owner()": {
        "details": "Returns the address of the current owner."
      },
      "renounceOwnership()": {
        "details": "Leaves the contract without owner. It will not be possible to call `onlyOwner` functions anymore. Can only be called by the current owner. NOTE: Renouncing ownership will leave the contract without an owner, thereby removing any functionality that is only available to the owner."
      },
      "transferOwnership(address)": {
        "details": "Transfers ownership of the contract to a new account (`newOwner`). Can only be called by the current owner."
      }
    },
    "version": 1
  },
  "userdoc": {
    "kind": "user",
    "methods": {},
    "version": 1
  }
}