{
  "contractName": "Timestamper",
  "abi": [
    {
      "anonymous": false,
      "inputs": [
        {
          "indexed": true,
          "internalType": "address",
          "name": "previousOwner",
          "type": "address"
        },
        {
          "indexed": true,
          "internalType": "address",
          "name": "newOwner",
          "type": "address"
        }
      ],
      "name": "OwnershipTransferred",
      "type": "event"
    },
    {
      "anonymous": false,
      "inputs": [
        {
          "indexed": true,
          "internalType": "string",
          "name": "hash",
          "type": "string"
        }
      ],
      "name": "Timestamp",
      "type": "event"
    },
    {
      "inputs": [],
      "name": "owner",
      "outputs": [
        {
          "internalType": "address",
          "name": "",
          "type": "address"
        }
      ],
      "stateMutability": "view",
      "type": "function",
      "constant": true
    },
    {
      "inputs": [],
      "name": "renounceOwnership",
      "outputs": [],
      "stateMutability": "nonpayable",
      "type": "function"
    },
    {
      "inputs": [
        {
          "internalType": "address",
          "name": "newOwner",
          "type": "address"
        }
      ],
      "name": "transferOwnership",
      "outputs": [],
      "stateMutability": "nonpayable",
      "type": "function"
    },
    {
      "inputs": [
        {
          "internalType": "string",
          "name": "hash",
          "type": "string"
        }
      ],
      "name": "timestamp",
      "outputs": [],
      "stateMutability": "nonpayable",
      "type": "function"
    },
    {
      "inputs": [],
      "name": "retrieve",
      "outputs": [
        {
          "internalType": "string",
          "name": "",
          "type": "string"
        }
      ],
      "stateMutability": "view",
      "type": "function",
      "constant": true
    }
  ],
  "bytecode": "0x608060405234801561001057600080fd5b5061002d61002261003260201b60201c565b61003a60201b60201c565b6100fe565b600033905090565b60008060009054906101000a900473ffffffffffffffffffffffffffffffffffffffff169050816000806101000a81548173ffffffffffffffffffffffffffffffffffffffff021916908373ffffffffffffffffffffffffffffffffffffffff1602179055508173ffffffffffffffffffffffffffffffffffffffff168173ffffffffffffffffffffffffffffffffffffffff167f8be0079c531659141344cd1fd0a4f28419497f9722a3daafe3b4186f6b6457e060405160405180910390a35050565b610b7f8061010d6000396000f3fe608060405234801561001057600080fd5b50600436106100575760003560e01c806309f13b191461005c5780632e64cec114610078578063715018a6146100965780638da5cb5b146100a0578063f2fde38b146100be575b600080fd5b610076600480360381019061007191906107b9565b6100da565b005b6100806101f1565b60405161008d919061088a565b60405180910390f35b61009e610283565b005b6100a861030b565b6040516100b591906108ed565b60405180910390f35b6100d860048036038101906100d39190610934565b610334565b005b6100e261042b565b73ffffffffffffffffffffffffffffffffffffffff1661010061030b565b73ffffffffffffffffffffffffffffffffffffffff1614610156576040517f08c379a000000000000000000000000000000000000000000000000000000000815260040161014d906109ad565b60405180910390fd5b806001908051906020019061016c9291906105bc565b506101ac6040518060400160405280600d81526020017f54696d657374616d70696e673a0000000000000000000000000000000000000081525082610433565b806040516101ba9190610a09565b60405180910390207f68dc69735580ad9af858b31f682575d0f71fb66069dd199c0e180bdff2af438a60405160405180910390a250565b60606001805461020090610a4f565b80601f016020809104026020016040519081016040528092919081815260200182805461022c90610a4f565b80156102795780601f1061024e57610100808354040283529160200191610279565b820191906000526020600020905b81548152906001019060200180831161025c57829003601f168201915b5050505050905090565b61028b61042b565b73ffffffffffffffffffffffffffffffffffffffff166102a961030b565b73ffffffffffffffffffffffffffffffffffffffff16146102ff576040517f08c379a00000000000000000000000000000000000000000000000000000000081526004016102f6906109ad565b60405180910390fd5b61030960006104cf565b565b60008060009054906101000a900473ffffffffffffffffffffffffffffffffffffffff16905090565b61033c61042b565b73ffffffffffffffffffffffffffffffffffffffff1661035a61030b565b73ffffffffffffffffffffffffffffffffffffffff16146103b0576040517f08c379a00000000000000000000000000000000000000000000000000000000081526004016103a7906109ad565b60405180910390fd5b600073ffffffffffffffffffffffffffffffffffffffff168173ffffffffffffffffffffffffffffffffffffffff160361041f576040517f08c379a000000000000000000000000000000000000000000000000000000000815260040161041690610af2565b60405180910390fd5b610428816104cf565b50565b600033905090565b6104cb8282604051602401610449929190610b12565b6040516020818303038152906040527f4b5c4277000000000000000000000000000000000000000000000000000000007bffffffffffffffffffffffffffffffffffffffffffffffffffffffff19166020820180517bffffffffffffffffffffffffffffffffffffffffffffffffffffffff8381831617835250505050610593565b5050565b60008060009054906101000a900473ffffffffffffffffffffffffffffffffffffffff169050816000806101000a81548173ffffffffffffffffffffffffffffffffffffffff021916908373ffffffffffffffffffffffffffffffffffffffff1602179055508173ffffffffffffffffffffffffffffffffffffffff168173ffffffffffffffffffffffffffffffffffffffff167f8be0079c531659141344cd1fd0a4f28419497f9722a3daafe3b4186f6b6457e060405160405180910390a35050565b60008151905060006a636f6e736f6c652e6c6f679050602083016000808483855afa5050505050565b8280546105c890610a4f565b90600052602060002090601f0160209004810192826105ea5760008555610631565b82601f1061060357805160ff1916838001178555610631565b82800160010185558215610631579182015b82811115610630578251825591602001919060010190610615565b5b50905061063e9190610642565b5090565b5b8082111561065b576000816000905550600101610643565b5090565b6000604051905090565b600080fd5b600080fd5b600080fd5b600080fd5b6000601f19601f8301169050919050565b7f4e487b7100000000000000000000000000000000000000000000000000000000600052604160045260246000fd5b6106c68261067d565b810181811067ffffffffffffffff821117156106e5576106e461068e565b5b80604052505050565b60006106f861065f565b905061070482826106bd565b919050565b600067ffffffffffffffff8211156107245761072361068e565b5b61072d8261067d565b9050602081019050919050565b82818337600083830152505050565b600061075c61075784610709565b6106ee565b90508281526020810184848401111561077857610777610678565b5b61078384828561073a565b509392505050565b600082601f8301126107a05761079f610673565b5b81356107b0848260208601610749565b91505092915050565b6000602082840312156107cf576107ce610669565b5b600082013567ffffffffffffffff8111156107ed576107ec61066e565b5b6107f98482850161078b565b91505092915050565b600081519050919050565b600082825260208201905092915050565b60005b8381101561083c578082015181840152602081019050610821565b8381111561084b576000848401525b50505050565b600061085c82610802565b610866818561080d565b935061087681856020860161081e565b61087f8161067d565b840191505092915050565b600060208201905081810360008301526108a48184610851565b905092915050565b600073ffffffffffffffffffffffffffffffffffffffff82169050919050565b60006108d7826108ac565b9050919050565b6108e7816108cc565b82525050565b600060208201905061090260008301846108de565b92915050565b610911816108cc565b811461091c57600080fd5b50565b60008135905061092e81610908565b92915050565b60006020828403121561094a57610949610669565b5b60006109588482850161091f565b91505092915050565b7f4f776e61626c653a2063616c6c6572206973206e6f7420746865206f776e6572600082015250565b600061099760208361080d565b91506109a282610961565b602082019050919050565b600060208201905081810360008301526109c68161098a565b9050919050565b600081905092915050565b60006109e382610802565b6109ed81856109cd565b93506109fd81856020860161081e565b80840191505092915050565b6000610a1582846109d8565b915081905092915050565b7f4e487b7100000000000000000000000000000000000000000000000000000000600052602260045260246000fd5b60006002820490506001821680610a6757607f821691505b602082108103610a7a57610a79610a20565b5b50919050565b7f4f776e61626c653a206e6577206f776e657220697320746865207a65726f206160008201527f6464726573730000000000000000000000000000000000000000000000000000602082015250565b6000610adc60268361080d565b9150610ae782610a80565b604082019050919050565b60006020820190508181036000830152610b0b81610acf565b9050919050565b60006040820190508181036000830152610b2c8185610851565b90508181036020830152610b408184610851565b9050939250505056fea2646970667358221220747ad41e49274c2bcf612100cfac7c066fc48731e8d91aa3fbb62702487c974964736f6c634300080d0033",
  "immutableReferences": {},
  "source": "// SPDX-License-Identifier: GPL-3.0\n\npragma solidity >=0.4.22 <0.9.0;\n\nimport \"hardhat/console.sol\";\nimport \"@openzeppelin/contracts/access/Ownable.sol\";\nimport \"@openzeppelin/upgrades-core/contracts/Initializable.sol\";\n\ncontract Timestamper is Ownable \n{\n    string private _hash;\n\n    event Timestamp(string indexed hash);\n\n    function timestamp(string memory hash) public onlyOwner \n    {\n        _hash = hash;\n\n        console.log(\"Timestamping:\", hash);\n        \n        emit Timestamp(hash);\n    }\n\n    function retrieve() public view returns (string memory)\n    {\n        return _hash;\n    }\n\n    //function batchTimestamp(string[] memory hashes) public onlyOwner {\n        //for (string i = 0; i < hashes.length; i++) {\n        //    emit Timestamp(hashes[i]);\n        //}\n    //}\n}",
  "sourcePath": "/home/csc/project/truffle/contracts/timestamper.sol",
  "compiler": {
    "name": "solc",
    "version": "0.8.13+commit.abaa5c0e.Emscripten.clang"
  },
  "schemaVersion": "3.4.7",
  "updatedAt": "2022-05-01T14:12:55.328Z",
  "networkType": "ethereum",
  "devdoc": {
    "kind": "dev",
    "methods": {
      "owner()": {
        "details": "Returns the address of the current owner."
      },
      "renounceOwnership()": {
        "details": "Leaves the contract without owner. It will not be possible to call `onlyOwner` functions anymore. Can only be called by the current owner. NOTE: Renouncing ownership will leave the contract without an owner, thereby removing any functionality that is only available to the owner."
      },
      "transferOwnership(address)": {
        "details": "Transfers ownership of the contract to a new account (`newOwner`). Can only be called by the current owner."
      }
    },
    "version": 1
  },
  "userdoc": {
    "kind": "user",
    "methods": {},
    "version": 1
  }
}